:020000040800F2
:1000000000800020F53E0008C90A0008CB0A00085D
:10001000CD0A0008CF0A0008D10A0008000000003D
:10002000000000000000000000000000D1250008D2
:10003000D30A00080000000071260008B526000859
:100040003D3F00083D3F00083D3F00083D3F0008A0
:100050003D3F00083D3F00083D3F00083D3F000890
:100060003D3F00083D3F00083D3F00083D3F000880
:100070003D3F00083D3F00083D3F0008D50A00080D
:100080003D3F00083D3F00083D3F00083D3F000860
:100090003D3F00083D3F00083D3F00083D3F000850
:1000A000000000003D3F00083D3F00083D3F0008C4
:1000B0003D3F00083D3F00083D3F00083D3F000830
:1000C0003D3F00083D3F00083D3F0008E50A0008AD
:1000D000F50A00083D3F00083D3F00083D3F00088D
:1000E0003D3F00083D3F00083D3F0008050B00086C
:1000F0003D3F00080000000000000000000000007C
:1001000000000000000000000000000000000000EF
:1001100000000000000000000000000000000000DF
:1001200000000000000000000000000000000000CF
:0C01300000000000000000005FF808F173
:1001400010B5054C237833B9044B13B10448AFF311
:1001500000800123237010BD3C040020000000003B
:100160000C41000808B5034B1BB103490348AFF32A
:10017000008008BD00000000400400200C41000881
:1001800053B94AB9002908BF00281CBF4FF0FF31FE
:100190004FF0FF3000F076B9ADF1080C6DE904CEF8
:1001A00000F006F8DDF804E0DDE9022304B0704752
:1001B0002DE9F047089E0D4604468846002B4DD198
:1001C0008A42944668D9B2FA82F252B101FA02F335
:1001D000C2F1200120FA01F10CFA02FC41EA030805
:1001E00094404FEA1C41B8FBF1F71FFA8CFE01FB6B
:1001F000178807FB0EF0230C43EA084398420AD9FC
:100200001CEB030307F1FF3580F01E81984240F29A
:100210001B81023F63441B1AB3FBF1F001FB103357
:1002200000FB0EFEA4B244EA0344A6450AD91CEB27
:10023000040400F1FF3380F00981A64540F20681F5
:10024000644402380021A4EB0E0440EA07401EB1CA
:100250000023D440C6E90043BDE8F0878B4208D9AB
:10026000002E00F0EE800021C6E900050846BDE83A
:10027000F087B3FA83F100294AD1AB4202D382421C
:1002800000F2FC80841A65EB030301209846002EDF
:10029000E2D0C6E90048DFE702B9FFDEB2FA82F237
:1002A000002A40F09180A1EB0C0001214FEA1C478D
:1002B0001FFA8CFEB0FBF7F307FB1300250C45EA91
:1002C00000450EFB03F0A84208D91CEB050503F11D
:1002D000FF3802D2A84200F2CE8043462D1AB5FB69
:1002E000F7F007FB10550EFB00FEA4B244EA0544EC
:1002F000A64508D91CEB040400F1FF3502D2A6453F
:1003000000F2B6802846A4EB0E0440EA03409EE7C4
:10031000C1F120078B4022FA07FC4CEA030C25FAB6
:1003200007FA4FEA1C49BAFBF9F820FA07F309FB70
:1003300018AA8D401FFA8CFE1D4300FA01F308FB3A
:100340000EF02C0C44EA0A44A04202FA01F20BD946
:100350001CEB040408F1FF3A80F08880A04240F2D0
:100360008580A8F102086444241AB4FBF9F009FB63
:10037000104400FB0EFEADB245EA0444A64508D980
:100380001CEB040400F1FF356CD2A6456AD9023893
:10039000644440EA0840A0FB0295A4EB0E04AC4282
:1003A000C846AE4656D353D0002E69D0B3EB0802F0
:1003B00064EB0E0422FA01F304FA07F71F43CC4062
:1003C000C6E90074002147E70CFA02FCC2F12001E3
:1003D00025FA01F34FEA1C4720FA01F195400D433D
:1003E000B3FBF7F107FB11331FFA8CFE280C40EA30
:1003F000034001FB0EF3834204FA02F408D91CEB1C
:10040000000001F1FF382FD283422DD90239604418
:10041000C01AB0FBF7F307FB1300ADB245EA004585
:1004200003FB0EF0A84208D91CEB050503F1FF38C9
:1004300016D2A84214D9023B6544281A43EA014166
:1004400038E73146304607E72F46E4E61846F9E636
:100450004B45A9D2B9EB020865EB0C0E0138A3E7B6
:100460004346EAE7284694E74146D1E7D0467BE792
:100470006444023847E7023B65442FE7084606E735
:100480003146E9E6704700BF844641EA000313F0B5
:10049000030349D1403A23D30B6803604B684360A0
:1004A0008B688360CB68C3600B6903614B694361F0
:1004B0008B698361CB69C3610B6A03624B6A4362D8
:1004C0008B6A8362CB6AC3620B6B03634B6B4363C0
:1004D0008B6B8363CB6BC36340304031403ADBD2DC
:1004E00030320BD30B6803604B6843608B688360CA
:1004F000CB68C36010301031103AF3D20C3205D300
:1005000051F8043B40F8043B043AF9D2043208D0D5
:10051000D2071CBF11F8013B00F8013B01D30B8847
:1005200003806046704700BF082A13D38B07B1D001
:1005300010F00303AED0C3F10403D21ADB071CBFD3
:1005400011F8013B00F8013BA4D331F8023B20F83D
:10055000023B9FE7043AD9D3013A11F8013B00F876
:10056000013BF9D20B7803704B7843708B78837022
:100570006046704700B585B0002301930293039352
:100580001548164A026043608360C360036143619B
:100590008361C361036280F824300122826280F8A3
:1005A0002C3010224263836380F83C3000F054FB0F
:1005B00060B90023019301220292039301A9064826
:1005C00000F018FC28B905B05DF804FB00F0EAF86B
:1005D000EFE700F0E7F8F6E75804002000240140B8
:1005E00000B589B000230393049305930693079302
:1005F0000268114B9A4202D009B05DF804FB03F582
:100600008A331A6A42F400721A621A6A02F4007299
:100610000192019ADA6942F00102DA61DB6903F0C2
:1006200001030293029B03230393049303A903484A
:1006300000F0C4FDE0E700BF0024014000000240DC
:1006400000B583B00A4BDA6942F08072DA61DB6987
:1006500003F080730193019B002205210F2000F01D
:10066000A7FC0F2000F0DCFC03B05DF804FB00BF2A
:100670000038024008B5012001F0E8FEFBE7000069
:1006800008B5044A0021044801F06AFE034B1860D3
:1006900008BD00BF3041000875060008AC0400200A
:1006A000F0B58BB00024059406940794089409943F
:1006B000324BDA6942F00402DA61DA6902F00402CC
:1006C0000192019ADA6942F02002DA61DA6902F0F5
:1006D00020020292029ADA6942F00102DA61DA69D2
:1006E00002F001020392039ADA6942F00202DA612F
:1006F000DB6903F002030493049B214F22464FF46D
:100700008671384600F042FE1E4D224641F2260117
:10071000284600F03BFE4FF480430593069407946F
:1007200005A9194800F04AFD4FF486730593012688
:1007300006960794089405A9384600F03FFD41F25B
:100740002603059306960794089405A9284600F009
:1007500035FD4FF4806305934FF488130693079497
:1007600005A9284600F02AFD402305930694079426
:1007700005A9284600F022FD0BB0F0BD003802406C
:1007800000000240000402400008024008B5026870
:10079000034B9A4200D008BD00F04CFAFBE700BFC3
:1007A0000010004072B6FEE700B593B0342200217D
:1007B00005A803F0E9FB0023009301930293039340
:1007C0000493184A136823F4C05343F4006313607E
:1007D000032305930123069308931023099302230F
:1007E0000E934FF480330F934FF4801310934FF414
:1007F0000003119305A800F081FE78B90F23009340
:100800000323019300230293039304930121684679
:1008100001F05CF920B913B05DF804FBFFF7C2FFEB
:10082000FFF7C0FF0070004008B500F0F3F9FFF7D4
:10083000BBFFFFF735FFFFF703FFFFF79BFE00F05D
:100840000DF800F02DF800F067F900F0B5F901F0AF
:100850003FFDFFF715FF01F05DFDFEE708B50E480F
:100860000E4B03604FF48273436000238360C360C8
:10087000036143614FF4007282612022C26103620E
:10088000436283620A23C36201F052FA00B908BDD1
:10089000FFF788FFFBE700BFF404002000300140B1
:1008A00008B50E480E4B03604FF48273436000237B
:1008B00083604FF40062C260036143614FF40072D1
:1008C0008261C3610362436283620A23C36201F0EF
:1008D0002FFA00B908BDFFF765FFFBE74C050020C4
:1008E0000038004010B58AB00023059306930793A3
:1008F0000893099303683A4A934205D00446394A5B
:10090000934229D00AB010BD374B1A6A42F4805284
:100910001A621A6A02F480520192019ADA6942F06C
:100920000102DA61DB6903F001030293029BE02319
:10093000059302230693032308930524099405A92C
:100940002A4800F03BFC00222146232000F030FB27
:10095000232000F065FBD5E7234B5A6A42F480421E
:100960005A625A6A02F480420392039ADA6942F0A8
:100970000202DA61DB6903F002030493049B4FF483
:100980002043059302230693032308930523099329
:1009900005A9174800F012FC1648174B03601023F6
:1009A0004360002383608022C2604FF48072026142
:1009B0004FF4806242618361C36100F03FFB58B92C
:1009C0000C4BA3645C6200220521242000F0F0FAA5
:1009D000242000F025FB95E7FFF7E4FEF0E700BFD9
:1009E0000030014000380040003802400000024062
:1009F00000040240B00400205860024000B585B0F9
:100A0000124B5A6A42F000425A625A6A02F000429D
:100A10000192019A1A6A42F001021A621A6A02F0FD
:100A200001020292029A5A6A42F080525A625B6A4A
:100A300003F080530393039B00220F216FF001000A
:100A400000F0B6FA05B05DF804FB00BF00380240C4
:100A500000B589B0014600222B2000F0A9FA2B2016
:100A600000F0DEFA144B5A6A42F010025A625B6AD6
:100A700003F010030193019B02A903A801F03AF9C6
:100A800001F018F90D4BA3FB00239B0C013B0C4814
:100A90000C4A026040F2E732C26043600023036107
:100AA000836001F062FA18B1012009B05DF804FB1F
:100AB000034801F07FFAF8E70038024083DE1B4369
:100AC000A405002000100040FEE7FEE7FEE7FEE779
:100AD000FEE7704708B5024800F00EFB08BD00BFF6
:100AE000B004002008B5024801F07AF908BD00BF43
:100AF000F404002008B5024801F072F908BD00BFF7
:100B00004C05002008B5024801F08CFA08BD00BF72
:100B1000A40500207047000008B50A480A4B03608E
:100B20004FF4E133436000238360C36003610C2210
:100B300042618361C36101F081FB00B908BDFFF729
:100B400031FEFBE7E40500200038014000B589B024
:100B50000023039304930593069307930268144BB1
:100B60009A4202D009B05DF804FB03F580331A6A9B
:100B700042F480421A621A6A02F480420192019A97
:100B8000DA6942F00102DA61DB6903F001030293E2
:100B9000029B4FF4C0630393022304930323069341
:100BA0000723079303A9034800F008FBDAE700BF17
:100BB000003801400000024008B50948094B0360B5
:100BC000082343600223836003610023836103627F
:100BD00000F0E2FB00B908BDFFF7E4FDFBE700BF52
:100BE00028060020005C00400268094B9A4200D0B1
:100BF000704782B003F5EE335A6A42F400025A623B
:100C00005B6A03F400030193019B02B0704700BFCD
:100C1000005C004010B5032000F0B8F90F20FFF78A
:100C200017FF10B10124204610BD0446FFF7E6FE71
:100C3000F9E70000034A1368034909680B4413608D
:100C4000704700BF1409002004000020014B186801
:100C5000704700BF14090020002800F0BC8070B568
:100C600082B00446C36C002B5FD0E36C13F0100F0E
:100C700040F0B380E36C23F4885323F0020343F085
:100C80000203E364564A536823F4403361680B431C
:100C90005360E3686269134394F83C104FF40072A8
:100CA00092FAA2F2B2FA82F201FA02F21343226A33
:100CB0001A4394F82400022393FAA3F3B3FA83F3BC
:100CC00000FA03F31343626B102A02D0A16B0A43AC
:100CD000134325682A6812F0400214D1A1690B431E
:100CE000A168E66931432669B6F5807F30D0012ED0
:100CF0002BD00A4394F82C1001292BD0686839496D
:100D000001400A436A6021688868374A02401A43F2
:100D10008A602269B2F5807F33D0012A31D0216800
:100D20000A6B22F0F8720A633AE0036580F84830F3
:100D30002E4B1A6A42F001021A621B6A03F0010389
:100D40000193019BFFF74CFC8FE74FF48072D0E7D3
:100D50003246CEE760B9216B01394FF4604090FA1A
:100D6000A0F0B0FA80F0814041F400610A43C5E789
:100D7000E16C41F02001E164216D41F00101216548
:100D8000BCE725682A6B22F0F872A16A01394FF09E
:100D9000F87090FAA0F0B0FA80F081400A432A631C
:100DA00022689168124A0A409A420BD0E36C23F001
:100DB000120343F01003E364236D43F00103236542
:100DC00001200BE000202065E36C23F0030343F0D7
:100DD0000103E36402E001207047012002B070BD0E
:100DE00000270140FF16FCFC8DF1FFC000380240D7
:100DF000FEFF80BF30B482B00023019390F84830EA
:100E0000012B00F0BD80012380F848304B68062B91
:100E10002CD80468226C03EB8303053B4FF01F0CB6
:100E20000CFA03FC22EA0C020D6805FA03F31343E3
:100E300023640B68092B5BD80468626903EB4303E6
:100E40004FF0070C0CFA03FC22EA0C028D6805FA3D
:100E500003F3134363610B68103B012B6CD9002330
:100E600080F84830184602B030BC70470C2B0ED8C2
:100E70000568EA6B03EB8303233B1F249C4022EAB3
:100E800004020C6804FA03F31343EB63D1E7122B5B
:100E90000ED80568AA6B03EB8303413B1F249C40DB
:100EA00022EA04020C6804FA03F31343AB63C0E7BD
:100EB000182B0ED805686A6B03EB83035F3B1F2476
:100EC0009C4022EA04020C6804FA03F313436B63A8
:100ED000AFE705682A6B03EB83037D3B1F249C402F
:100EE00022EA04020C6804FA03F313432B63A0E71D
:100EF000132B0ED805682A6903EB43031E3B072416
:100F00009C4022EA04028C6804FA03F313432B6129
:100F1000A1E71A2B0ED80568EA6803EB43033C3BB4
:100F200007249C4022EA04028C6804FA03F313436A
:100F3000EB6090E700BF8EE7124B5B6813F4000F85
:100F40008DD1104A536843F4000353600B68102B93
:100F500085D10D4B1B6802F1467202F52D3202F26B
:100F60008332A2FB03239B0C03EB83035B000193FF
:100F700002E0019B013B0193019B002BF9D16EE73D
:100F8000022070E70027014000000020074AD368D4
:100F900023F4E0631B041B0C000200F4E060034335
:100FA00043F0BF6343F40033D360704700ED00E0CB
:100FB00000B5194BDB68C3F30223C3F1070CBCF186
:100FC000040F28BF4FF0040C03F1040EBEF1060F0E
:100FD00018D9033B4FF0FF3E0EFA0CFC21EA0C013E
:100FE00099400EFA03F322EA0303194300280BDBAE
:100FF0000901C9B200F1604000F5614080F80013BA
:101000005DF804FB0023E5E700F00F000901C9B219
:10101000024B1954F4E700BF00ED00E014ED00E0CE
:10102000002807DB00F01F02400901239340024A19
:1010300042F82030704700BF00E100E060B310B418
:1010400002460168154B0B441548A0FB03031B091E
:101050009B001364134BD363022382F8213008688A
:1010600020F4FF4020F07000536894682343D46854
:101070002343146923435469234394692343D46964
:10108000234303430B6000209063012382F8213047
:1010900082F8200010BC704701207047F89FFDBF08
:1010A000CDCCCCCC0060024008B590F82130DBB24A
:1010B000022B03D004238363012008BD0268136858
:1010C00023F00E0313600268136823F0010313601A
:1010D000036C03F01C03C16B012202FA03F34B60A3
:1010E00080F82120002380F82030436B13B198470B
:1010F0000020E2E70020E0E738B5C36B1968046818
:101100002568036C03F01C0304229A400A4215D0A0
:1011100015F0040F12D0236813F0200F03D12368B9
:1011200023F004032360036C03F01C02C16B04234F
:1011300093404B60C36A03B1984738BD02229A407E
:101140000A421CD015F0020F19D0236813F0200FAB
:1011500006D1236823F00A032360012380F821309D
:10116000036C03F01C02C16B022393404B6000230D
:1011700080F82030836A002BDFD09847DDE7082213
:1011800002FA03F30B42D8D015F0080FD5D023682C
:1011900023F00E032360036C03F01C03C16B0122D8
:1011A00002FA03F34B60826380F82120002380F869
:1011B0002030036B002BC0D09847BEE770B582B0DB
:1011C000002365E085685E000324B44025EA040539
:1011D000CC68B4402C438460446824EA0C0C4C680E
:1011E000C4F300149C4044EA0C04446061E0DD0850
:1011F000083550F8256003F007044FEA840C0F24EB
:1012000004FA0CF426EA040E0C6904FA0CF444EA1D
:101210000E0440F8254063E0042400E0002404FAB2
:101220000EF42C430CF1020C544D45F82C40544C58
:101230002568D44325EA0206D1F804C01CF4803F97
:1012400001D042EA05064E4D2E606D6804EA05069F
:10125000D1F804C01CF4003F01D042EA0506484D15
:101260006E60AD6804EA0506D1F804C01CF4801F66
:1012700001D042EA0506424DAE60ED682C404E6852
:1012800016F4001F01D042EA05043D4AD460013340
:101290000A6832FA03F46FD04FF0010C0CFA03FC29
:1012A0001CEA0202F3D04C6804F00304013C012C58
:1012B00088D94C6804F00304032C0CD0C4685D008A
:1012C0004FF0030C0CFA05FC24EA0C0C8C68AC40C3
:1012D00044EA0C04C4604C6804F00304022C86D079
:1012E00004684FEA430E4FF0030C0CFA0EFC24EA9C
:1012F0000C0C4C6804F0030404FA0EF444EA0C04E9
:1013000004604C6814F4403FC1D01E4C256A45F07F
:1013100001052562246A04F001040194019C4FEA4E
:10132000930C0CF10205154C54F8255003F00304FE
:101330004FEA840E0F2404FA0EF425EA0405124C39
:10134000A0423FF46BAF04F58064A0420ED004F5D8
:101350008064A0420CD004F58064A0420AD004F559
:101360008064A0423FF458AF052458E7012456E7B3
:10137000022454E7032452E702B070BD000001408C
:101380000004014000380240000002400AB18161BF
:101390007047090481617047002864D030B587B078
:1013A000044690F8A9323BB1032384F8A93220689F
:1013B00000F073FF00231FE080F8A832FFF714FC51
:1013C000F2E75A1C02EB820104EBC10101204870D4
:1013D00002EB820104F8313003EB830104EBC1011D
:1013E000CB8602EB820C04EBCC0C00208CF80300C3
:1013F0008863C8630864D3B260688342E1D3002382
:1014000016E003EB830204EBC202002182F86911AB
:1014100082F8683182F86B11C2F87811C2F87C1139
:1014200003EB830204EBC202C2F880110133DBB28A
:101430009842E6D8A4465CF8105BEE46BCE80F0084
:10144000AEE80F00DCF80030CEF80030231D0ECBE4
:10145000284600F02CFF002084F82400012384F8A3
:10146000A93207B030BD01207047000010B483B02E
:101470001F4B9B6813F0F00328D11D4A526A12F0EB
:10148000805F10D01B4A126802F4C052B2F5C05FF0
:101490001DD1B0F5404F1AD1174A136843F0040329
:1014A0001360012313E012494A6A42F080524A62F3
:1014B0004A6A02F080520192019A0E4A126802F4BE
:1014C000C0524C6A24F080544C62DFE700230A4982
:1014D0000A6822F001021A430A600A6802F0010257
:1014E0009A4203D1002003B010BC70470120FAE7F4
:1014F0000038024000700040003C0240002800F02C
:101500005E82F0B583B00446A24B9D6805F00C05E1
:101510009E6806F48036036813F0010F1DD0082D75
:1015200012D00C2D0ED06368012B35D0002B49D181
:10153000984B1A6822F480321A601A6822F48022CA
:101540001A602EE0002EEED0924B1B6813F4003F81
:1015500003D06368002B00F03482236813F0020F7D
:1015600068D0042D55D00C2D51D0E368002B00F02D
:10157000C780894B01221A60FFF768FB0646854B3E
:101580001B6813F0020F40F0B280FFF75FFB801B77
:101590000228F4D903201DE27E4A136843F4803305
:1015A0001360636823B3FFF751FB0746794B1B6851
:1015B00013F4003FD1D1FFF749FBC01B0528F5D933
:1015C000032007E2052B09D0724B1A6822F48032FF
:1015D0001A601A6822F480221A60E2E76D4B1A68DA
:1015E00042F480221A601A6842F480321A60D8E706
:1015F000FFF72CFB0746674B1B6813F4003FACD08A
:10160000FFF724FBC01B0528F5D90320E2E1002EDB
:10161000ABD1604B1B6813F0020F03D0E368012BC2
:1016200040F0D1815B4A536823F4F853216943EABF
:1016300001235360236813F0100F3BD0002D40F0BE
:101640008580544B1B6813F4007F03D0A369002BE3
:1016500000F0BB81206A4F4B5B6803F46043984203
:1016600060D9FFF703FF002840F0B181494A536871
:1016700023F46043216A0B435360536823F07F4394
:10168000E16943EA01635360236A5B0B5A1C4FF420
:10169000004393403F4A9268C2F303123F498A5C79
:1016A000D3403F4A13603F4B1868FFF7D1F9002839
:1016B00040F09081236813F0080F00F09B8063696D
:1016C000002B00F08480344B0122C3F88026FFF702
:1016D000BDFA06462F4B5B6B13F0020F40F08A8079
:1016E000FFF7B4FA801B0228F4D9032072E1294ADB
:1016F000536823F4F853216943EA0123536099E7BF
:10170000254B00221A60FFF7A1FA0646214B1B6801
:1017100013F0020F8ED0FFF799FA801B0228F5D93B
:10172000032057E11B4A536823F460431843506079
:10173000536823F07F43E16943EA01635360206A01
:10174000FFF794FE00289FD0012043E1A3695BB31B
:10175000114B01221A62FFF779FA06460D4B1B68FE
:1017600013F4007F06D1FFF771FA801B0228F5D928
:1017700003202FE1074A536823F46043216A0B4397
:101780005360536823F07F43E16943EA0163536088
:1017900090E700BF00380240000047425441000873
:1017A00000000020080000208F4B00221A62FFF783
:1017B0004DFA06468D4B1B6813F4007F3FF47AAF59
:1017C000FFF744FA801B0228F4D9032002E1864B7C
:1017D0000022C3F88026FFF739FA0646834B5B6B7D
:1017E00013F0020F06D0FFF731FA801B0228F5D95B
:1017F0000320EFE0236813F0040F79D07B4B5B6A82
:1018000013F0805F0BD1794B5A6A42F080525A62D2
:101810005B6A03F080530193019B012600E00026E0
:10182000734B1B6813F4807F0ED0A368012B1FD06D
:10183000002B35D16D4B5A6B22F480725A635A6B70
:1018400022F480625A6318E0694A136843F4807393
:101850001360FFF7FBF90746654B1B6813F4807FA5
:10186000E3D1FFF7F3F9C01B6428F5D90320B1E0F9
:101870005E4A536B43F480735363A36833B3FFF73B
:10188000E5F90746594B5B6B13F4007F2FD1FFF747
:10189000DDF9C01B41F288339842F3D9032099E067
:1018A000052B09D0514B5A6B22F480725A635A6B44
:1018B00022F480625A63E0E74C4B5A6B42F4806238
:1018C0005A635A6B42F480725A63D6E7FFF7BEF947
:1018D0000746464B5B6B13F4007F08D0FFF7B6F961
:1018E000C01B41F288339842F3D9032072E0C6B995
:1018F000636A002B6DD00C2D4CD0022B17D03A4BC5
:1019000000221A66FFF7A2F90446384B1B6813F051
:10191000007F3DD0FFF79AF9001B0228F5D903207C
:1019200058E0324A536A23F080535362E0E72E4B6B
:1019300000221A66FFF78AF905462C4B1B6813F044
:10194000007F06D0FFF782F9401B0228F5D903205B
:1019500040E026498B6823F47D03A26AE06A0243D3
:10196000206B024313438B601F4B01221A66FFF763
:101970006DF904461D4B1B6813F0007F06D1FFF77D
:1019800065F9001B0228F5D9032023E0002021E09F
:1019900000201FE0012B1FD0144B9B6803F4803103
:1019A000A26A91421AD103F47012E16A8A4217D1F5
:1019B00003F44003226B934214D100200AE001207B
:1019C0007047012006E0012004E0012002E0012030
:1019D00000E0002003B0F0BD0120FBE70120F9E7A3
:1019E0000120F7E70120F5E70000474200380240F8
:1019F0000070004008B5314B9A6802F00C03082BC8
:101A000057D00C2B0AD0042B55D02C4B5868C0F360
:101A10004230431C4FF4004098404DE0C2F38343F2
:101A2000274911F803C0C2F381520132234B9B684E
:101A300013F4803F1ED04FEA4C11B1EB0C006EEB5B
:101A40000E0E4FEA8E1343EA90638101091A63EB8D
:101A50000E03DB0043EA5173C90011EB0C0C43F198
:101A60000003590200234FEA4C2041EADC51FEF703
:101A700087FB21E04FEA4C11B1EB0C006EEB0E0E30
:101A80004FEA8E1343EA90638101091A63EB0E0358
:101A9000DB0043EA5173C90011EB0C0C43F1000366
:101AA000990200234FEA8C2041EA9C51FEF768FB23
:101AB00002E0044800E0044808BD00BF00380240CE
:101AC0006C41000800127A000024F400002800F0A5
:101AD000D98070B50C4605466E4B1B6803F00103B8
:101AE0008B420DD2012928D06A4A136823F00103E2
:101AF00023431360136803F00103A34240F0C48042
:101B00002B6813F0020F06D0634A936823F0F003AA
:101B1000A9680B4393602B6813F0010F72D06B68B8
:101B2000022B10D0032B32D0012B37D05A4A126827
:101B300012F4007F0DD101209DE0564A136843F056
:101B400004031360D0E7544A126812F4003F00F017
:101B50009D8051498A6822F0030213438B60FFF78E
:101B600075F806466B68022B1FD0032B2CD0012B77
:101B700039D0494B9B6813F00C0F43D0FFF766F840
:101B8000801B41F288339842F3D9032073E0424A24
:101B9000126812F0007FDCD101206CE03E4A12682E
:101BA00012F0020FD5D1012065E03B4B9B6803F09A
:101BB0000C03082B26D0FFF749F8831B41F288322B
:101BC0009342F2D9032056E0334B9B6803F00C0399
:101BD0000C2B17D0FFF73AF8801B41F2883398425C
:101BE000F2D9032047E02C4B9B6803F00C03042B35
:101BF00008D0FFF72BF8801B41F288339842F2D9C6
:101C0000032038E0234B1B6803F00103A3420CD9E7
:101C1000012C31D01F4A136823F0010323431360C2
:101C2000136803F00103A34232D12B6813F0040FB1
:101C300006D0194A936823F4E063E9680B43936084
:101C40002B6813F0080F07D0134A936823F46053EE
:101C5000296943EAC1039360FFF7CCFE0E4B9B68F2
:101C6000C3F303130D4AD35CD8400D4B18600D4BE2
:101C70001868FEF7EDFE70BD064A136843F00403D2
:101C80001360C7E7012070470120F4E70120F2E765
:101C90000120F0E7003C02400038024054410008B7
:101CA0000000002008000020014B1868704700BFAA
:101CB0000000002008B5FFF7F7FF044B9B68C3F353
:101CC0000223034AD35CD84008BD00BF003802405D
:101CD0006441000808B5FFF7E7FF044B9B68C3F3B6
:101CE000C223034AD35CD84008BD00BF003802407D
:101CF000644100080F2303600B4B9A6802F0030253
:101D000042609A6802F0F00282609A6802F4E0622F
:101D1000C2609B68DB0803F4E0630361034B1B684C
:101D200003F001030B60704700380240003C0240A2
:101D3000002851D010B50446436A33B94368B3F55F
:101D4000827F05D00023C36102E000230361436169
:101D50000023A36294F85130002B37D0022384F87B
:101D600051302268136823F040031360636803F462
:101D70008273A26802F404421343E26802F4006230
:101D80001343226902F002021343626902F0010266
:101D90001343A26902F400721343E26902F03802AD
:101DA0001343226A02F080021343A26A02F4005233
:101DB000216813430B60638B226803F004035360B4
:101DC00000206065012384F8513010BD84F8503044
:101DD0002046FEF787FDC1E70120704770470000ED
:101DE00030B585B00446026851689368C3F380102B
:101DF00013F0400F05D113F0010F02D011F0400F86
:101E00005AD113F0020F02D011F0800F58D1C3F352
:101E1000401513F0200F01D1002854D011F0200FED
:101E200051D078B194F85130DBB2032B4DD0636DB3
:101E300043F00403636500230193D368019393681F
:101E40000193019B65B1636D43F00103636500235A
:101E5000039393680393136823F040031360039B79
:101E6000636D002B2FD02268536823F0E00353608A
:101E7000012384F8513011F0030F2ED022685368EB
:101E800023F003035360E36C4BB1164A5A63E06CD2
:101E9000FFF70AF918B1636D43F040036365A36C63
:101EA0008BB1104A5A63A06CFFF7FEF858B1636D0E
:101EB00043F04003636506E0236C2046984702E048
:101EC000636C2046984705B030BD00230293D36869
:101ED000029393680293029BF5E72046FFF77EFF8B
:101EE000F1E700BFE91E000808B5406A0023C38778
:101EF000C386FFF773FF08BD0368B0F1804F06D0BB
:101F0000184A904203D002F58062904203D123F038
:101F100070034A681343B0F1804F12D0114A9042C7
:101F20000FD002F5806290420BD002F580329042D1
:101F300007D002F58062904203D002F580629042A1
:101F400003D123F44073CA68134323F080030A6962
:101F5000134303608B68C3620B6883620123436190
:101F6000704700BF00040040704700B310B504463E
:101F700090F83930B3B1022384F83930214651F852
:101F8000040BFFF7B9FF012384F83E3084F83A30A0
:101F900084F83B3084F83C3084F83D3084F83930A4
:101FA000002010BD80F83830FFF7DEFFE3E70120A6
:101FB0007047000090F83930DBB2012B27D10223A3
:101FC00080F839300268D36843F00103D3600368B6
:101FD000B3F1804F10D0104A93420DD002F58062C9
:101FE000934209D002F58032934205D01A6842F03C
:101FF00001021A60002070479A6802F00702062A60
:1020000007D01A6842F001021A60002070470120D0
:1020100070470020704700BF0004004070477047C1
:102020007047704710B5044603681A6912F0020F32
:1020300011D0DA6812F0020F0DD06FF002021A61AF
:102040000123037603689B6913F0030F5ED0FFF74B
:10205000E6FF0023237623681A6912F0040F12D0DA
:10206000DA6812F0040F0ED06FF004021A61022336
:10207000237623689B6913F4407F4DD02046FFF7F9
:10208000CEFF0023237623681A6912F0080F12D0BE
:10209000DA6812F0080F0ED06FF008021A610423FC
:1020A00023762368DB6913F0030F3CD02046FFF74B
:1020B000B6FF0023237623681A6912F0100F12D09E
:1020C000DA6812F0100F0ED06FF010021A610823B8
:1020D00023762368DB6913F4407F2BD02046FFF77B
:1020E0009EFF0023237623681A6912F0010F03D0A4
:1020F000DA6812F0010F24D123681A6912F0400F38
:1021000003D0DA6812F0400F22D110BDFFF786FF2E
:102110002046FFF785FF9CE72046FFF77FFF20461C
:10212000FFF77EFFADE72046FFF778FF2046FFF779
:1021300077FFBEE72046FFF771FF2046FFF770FFED
:10214000CFE76FF001021A612046FEF71FFBD3E7CD
:102150006FF040021A612046FFF763FFD5E70000E9
:1021600038B504460268136923F44053C1680B4331
:10217000136183680269134342691343C2691A43B6
:102180000168CB6823F4164323F00C031343CB60A0
:102190000268536923F4407381690B4353610268F9
:1021A000244B9A4223D0FFF785FDE369B3F5004F36
:1021B00020D000EB800202EB820260688000B2FB5C
:1021C000F0F21D48A0FB02314909642303FB1123EF
:1021D0001B013233A0FB03235B0903F0F00202EB87
:1021E000011203F00F03216813448B6038BDFFF721
:1021F00071FDDAE700EB800000EB800063685B00B4
:10220000B0FBF3F00C4DA5FB00325109642303FB36
:102210001103DB003233A5FB03235B095A0002F4F0
:10222000F87202EB011203F00703216813448B607C
:10223000DCE700BF003801401F85EB5158B310B5F3
:10224000044690F83D300BB3242384F83D302268D7
:10225000D36823F40053D3602046FFF781FF226840
:10226000136923F4904313612268536923F02A030E
:1022700053612268D36843F40053D3600020206484
:10228000202384F83D3084F83E3010BD80F83C3087
:10229000FEF75CFCD8E701207047B0F8403023F42B
:1022A0007C535B045B0CA0F840300020704784B086
:1022B000844601A880E80E000123ACF840300020DD
:1022C000ACF84000ACF84400ACF8500004B07047E3
:1022D000EFF3058393B9EFF3108393B90C4B1868B0
:1022E000022804D080B90A4B01221A607047EFF32C
:1022F0001183002BF6D06FF0050070476FF00500DA
:1023000070476FF0050070474FF0FF30704700BF17
:10231000740B002008B5EFF30583B3B9EFF3108316
:10232000B3B90E4B1B68022B08D0012B13D10B4BFA
:1023300002221A6001F0CCF8002008BDEFF31182F0
:10234000002AF2D06FF00500F7E76FF00500F4E720
:102350006FF00500F1E74FF0FF30EEE7740B00205F
:10236000F0B587B000240494EFF30584002C43D12A
:10237000EFF31083002B3FD1334B1B68022B16D099
:10238000002839D000238DF8173062B3156895B155
:10239000936903B918235C1E372C51D8546814F084
:1023A000010F4FD156694EB14FEA960C08E0EFF39A
:1023B00011830BBBE4E70DF11705E9E74FF0800C43
:1023C00094682CB1D7685B2F02D9176907B1B6B9E9
:1023D00014B14FF0FF340CE0D46894B914699CB187
:1023E0004FF0FF3405E0002418234FF0800C0DF16E
:1023F0001705012C0AD0ACB1049807B0F0BD012438
:10240000F7E74FF0FF34F4E70024F2E7146992682D
:102410000292019400930B466246294600F0EAFFBF
:102420000490E9E704AA019200930B461FFA8CF28C
:10243000294601F019F80128DED000230493DBE7D8
:102440000020DAE70020D8E7740B002008B5EFF38E
:102450000583A3B9EFF31083A3B90C4B1B68022BC0
:1024600002D040B9002008BDEFF31183002BF8D053
:102470006FF00500F7E701F08FF90020F3E76FF048
:102480000500F0E76FF00500EDE700BF740B0020DA
:10249000034B0360034B0B6080231360704700BF46
:1024A000180B002018090020034B0360034B0B603E
:1024B0004FF4807313607047780F0020780B002072
:1024C00000F1080343604FF0FF328260C360036194
:1024D00000230360704700230361704743684B602B
:1024E0009A688A60516099600861036801330360EB
:1024F000704730B40D68B5F1FF3F11D000F108030B
:102500001C465B681A68AA42FAD963684B609960F6
:102510008C606160086103680133036030BC704700
:102520000469F2E70369416882688A604168516022
:102530005A68824206D0002202611A68013A1A6083
:102540001868704782685A60F5E7000082B000237F
:1025500001930D4B1B68B3F1FF3F08D04FF05003C0
:1025600083F31188BFF36F8FBFF34F8FFEE74FF0F8
:10257000500383F31188BFF36F8FBFF34F8F019B1D
:10258000002BFCD002B070470C0000200648006809
:10259000006880F3088862B661B6BFF34F8FBFF35F
:1025A0006F8F00DF00BF000008ED00E04FF0807388
:1025B00040F8043C21F0010140F8081C034B40F8AE
:1025C0000C3C40F8202C4038704700BF4D250008D7
:1025D000074B19680868B0E8F00F80F30988BFF36B
:1025E0006F8F4FF0000080F311884EF00D0E704792
:1025F000341C00204FF0500383F31188BFF36F8F1A
:10260000BFF34F8F0B4A136801331360012B00D0C7
:1026100070474FF0E023D3F8043D13F0FF0FF7D0DD
:102620004FF0500383F31188BFF36F8FBFF34F8FC9
:10263000FEE700BF0C000020094B1B6843B94FF0B8
:10264000500383F31188BFF36F8FBFF34F8FFEE703
:10265000013B034A13600BB983F31188704700BF35
:102660000C0000200000000000000000000000003E
:10267000EFF30980BFF36F8F0D4B1A6820E9F00F5D
:1026800010602DE908404FF0500080F3118801F0F0
:10269000A9F84FF0000080F31188BDE808401968E0
:1026A0000868B0E8F00F80F30988BFF36F8F7047B8
:1026B000341C002008B54FF0500383F31188BFF39A
:1026C0006F8FBFF34F8F00F05FFF28B14FF0E02313
:1026D0004FF08052C3F8042D002383F3118808BD06
:1026E0004FF0E022002313619361054B1B680549FD
:1026F000A1FB03139B09013B53610723136170473F
:1027000000000020D34D621010B582B02A4B1A7819
:10271000D2B20192FF221A701B78DBB28DF803301F
:102720009DF8033003F05003244A1370244B072212
:102730001A6009E0224A1368013B13609DF80330D8
:102740005B00DBB28DF803309DF8033013F0800F8F
:10275000F0D11B4B1B68032B08D04FF0500383F3C1
:102760001188BFF36F8FBFF34F8FFEE71B02144A30
:10277000136003F4E0631360019BDBB20E4A137035
:102780004FF0E023D3F8202D42F47002C3F8202D3F
:10279000D3F8202D42F07042C3F8202DFFF7A0FFA0
:1027A0000024084B1C60FFF7F1FE01F01BF8FFF757
:1027B000CDFE204602B010BD00E400E0D40F0020A2
:1027C000D80F00200C000020EFF305830F2B0FD94A
:1027D000114A9B5CDBB2114A12789A4208D94FF039
:1027E000500383F31188BFF36F8FBFF34F8FFEE762
:1027F0004FF0E023D3F80C3D03F4E063084A12687D
:10280000934208D94FF0500383F31188BFF36F8FC1
:10281000BFF34F8FFEE77047F0E300E0D40F0020D6
:10282000D80F0020124A12F0070F1ED0D11D21F040
:102830000701C1F5406313440A460E4802600021B7
:1028400041601344083B23F007030B4803605960C1
:102850001960991A51601360084B1960084B196090
:10286000084B4FF000421A6070474FF44063E4E7B2
:10287000E00F0020EC1B0020DC0F0020E81B0020F4
:10288000E41B0020E01B0020154B1A461B68834206
:10289000FBD3516802EB010C844509D0416800EB81
:1028A000010C634509D00360904218D01060704756
:1028B0004068014451601046F0E710B4094C2468A8
:1028C000A3420AD05B681944416013681B68036027
:1028D000904200D0106010BC70470460F8E7704769
:1028E000EC1B0020DC0F002070B5054600F03EFE1A
:1028F000344B1B68A3B1344B1B681D424AD135B120
:10290000083515F0070F02D025F007050835002D12
:1029100042D02E4B1B68AB424DD32D4A146804E0C5
:10292000FFF780FFE7E722461C466368AB4202D20E
:102930002368002BF7D1234B1B68A3423DD01668B8
:1029400008362368136063685B1B102B10D960196D
:1029500010F0070F08D04FF0500383F31188BFF336
:102960006F8FBFF34F8FFEE743606560FFF78CFF0B
:10297000626816490B689B1A0B60164909688B42FE
:1029800001D214490B60104B1B6813436360002392
:10299000236002E0002600E0002600F081FE16F031
:1029A000070F0CD04FF0500383F31188BFF36F8FE4
:1029B000BFF34F8FFEE70026EFE70026EDE7304636
:1029C00070BD00BFDC0F0020E01B0020E41B0020D6
:1029D000EC1B0020E81B002080B338B50446A0F1B2
:1029E000080550F8043C164A1268134208D14FF00B
:1029F000500383F31188BFF36F8FBFF34F8FFEE750
:102A000050F8081C41B14FF0500383F31188BFF315
:102A10006F8FBFF34F8FFEE723EA020340F8043CB9
:102A200000F0A4FD54F8041C064A13680B4413601C
:102A30002846FFF729FF00F033FE38BD704700BF7E
:102A4000E01B0020E41B002010B50446FFF7D2FD78
:102A5000A26BE36B9A4204D00024FFF7EDFD204601
:102A600010BD0124F9E710B50446FFF7C3FDA36BC1
:102A700023B90124FFF7E0FD204610BD0024F9E74B
:102A800070B504461546866B026C5AB903681BB1D3
:102A900000200136A66370BD406800F0CBFF002324
:102AA0006360F6E76DB98068FDF7EEFC226CA36801
:102AB0001344A3606268934219D32368A360284635
:102AC000E7E7C068FDF7E0FC226C5142E3689B1A1F
:102AD000E3602268934202D263680B44E360022DF4
:102AE00001D00020D5E726B1013E0020D1E72846DD
:102AF000CFE70020CDE708B50346026C62B1084677
:102B0000D9681144D960D3F804C0614501D319686C
:102B1000D960D968FDF7B8FC08BD38B50546FFF7A0
:102B200069FD95F8454064B201E0013C64B2002CB7
:102B30000ADD6B6A43B105F1240000F0D1FE0028E4
:102B4000F3D000F061FFF0E7FF2385F84530FFF791
:102B500073FDFFF74FFD95F8444064B201E0013C7E
:102B600064B2002C0ADD2B6943B105F1100000F0BE
:102B7000B7FE0028F3D000F047FFF0E7FF2385F809
:102B80004430FFF759FD38BD38B5E0B10D46044675
:102B9000FFF730FD2368E26B216C01FB02306060BF
:102BA0000020A063A360013A02FB0133E360FF232E
:102BB00084F8443084F84530FDB9236963B9FFF7E0
:102BC0003BFD012038BD4FF0500383F31188BFF364
:102BD0006F8FBFF34F8FFEE704F1100000F080FE0F
:102BE0000028ECD04FF0E0234FF08052C3F8042DC2
:102BF000BFF34F8FBFF36F8FE1E704F11000FFF7D2
:102C00005FFC04F12400FFF75BFCD8E738B51D46F4
:102C1000049C0B4649B92460E063236401212046EB
:102C2000FFF7B2FF84F84C5038BD2260F4E740B99A
:102C30004FF0500383F31188BFF36F8FBFF34F8FB3
:102C4000FEE710B584B01C46844653B192B189B9F1
:102C50004FF0500383F31188BFF36F8FBFF34F8F93
:102C6000FEE74FF0500383F31188BFF36F8FBFF37C
:102C70004F8FFEE76AB150230393039B502B13D071
:102C80004FF0500383F31188BFF36F8FBFF34F8F63
:102C9000FEE70029EFD04FF0500383F31188BFF314
:102CA0006F8FBFF34F8FFEE7012384F84630009407
:102CB0009DF818306046FFF7A9FF204604B010BD0C
:102CC000F0B585B0019288B10F461D460446B1B1FA
:102CD000022D20D1E36B012B1DD04FF0500383F365
:102CE0001188BFF36F8FBFF34F8FFEE74FF0500394
:102CF00083F31188BFF36F8FBFF34F8FFEE7036C31
:102D0000002BE5D04FF0500383F31188BFF36F8F92
:102D1000BFF34F8FFEE700F07DFE064658B9019BDA
:102D2000002B48D04FF0500383F31188BFF36F8F0F
:102D3000BFF34F8FFEE700263DE02A463946204686
:102D4000FFF79EFE636A7BB948B14FF0E0234FF076
:102D50008052C3F8042DBFF34F8FBFF36F8FFFF77F
:102D60006BFC012005B0F0BD04F1240000F0B8FDBB
:102D70000028F4D04FF0E0234FF08052C3F8042D28
:102D8000BFF34F8FBFF36F8FE9E7FFF755FC0020CC
:102D9000E8E702A800F0EAFD012619E0002384F824
:102DA000443021E0002384F8453023E02046FFF73B
:102DB000B4FE00F075FCFFF71DFCA26BE36B9A42BA
:102DC000BBD3022DB9D0019B002BDED0002EE0D06A
:102DD000FFF732FC00F0CAFBFFF70CFC94F844202C
:102DE00052B2B2F1FF3FD9D094F8452052B2B2F1BD
:102DF000FF3FD7D0FFF720FC01A902A800F0C2FDD9
:102E0000D8B92046FFF720FE0028CFD0019904F161
:102E1000100000F031FD2046FFF77FFE00F040FC7F
:102E20000028C8D14FF0E0234FF08052C3F8042DA2
:102E3000BFF34F8FBFF36F8FBDE72046FFF76DFEE7
:102E400000F02EFC00208DE72DE9F84390B10F46ED
:102E500016461C460546B1B1022C20D1EB6B012B66
:102E60001DD04FF0500383F31188BFF36F8FBFF372
:102E70004F8FFEE74FF0500383F31188BFF36F8F3E
:102E8000BFF34F8FFEE7036C002BE5D04FF05003EC
:102E900083F31188BFF36F8FBFF34F8FFEE7FFF708
:102EA00093FCEFF311894FF0500383F31188BFF3C4
:102EB0006F8FBFF34F8FAA6BEB6B9A4206D3022C36
:102EC00004D0002089F31188BDE8F88395F8458087
:102ED0004FFA88F8224639462846FFF7D1FDB8F167
:102EE000FF3F06D008F101035BB285F845300120B1
:102EF000E8E76B6A0BB90120E4E705F1240000F074
:102F0000EFFC18B126B101203060DBE70120D9E7E2
:102F10000120D7E7F0B585B0019290B10F46044685
:102F2000C1B100F077FD064600BB019B002B5ED0CF
:102F30004FF0500383F31188BFF36F8FBFF34F8FB0
:102F4000FEE74FF0500383F31188BFF36F8FBFF399
:102F50004F8FFEE7036C002BE3D04FF0500383F359
:102F60001188BFF36F8FBFF34F8FFEE700263EE05F
:102F700039462046FFF7BFFD013DA563236923B90C
:102F8000FFF75AFB012005B0F0BD04F1100000F07E
:102F9000A7FC0028F4D04FF0E0234FF08052C3F894
:102FA000042DBFF34F8FBFF36F8FE9E7FFF744FBAB
:102FB0000020E8E702A800F0D9FC012621E0002368
:102FC00084F8443029E0002384F845302BE0204683
:102FD000FFF7A3FD00F064FB09E02046FFF79DFD2D
:102FE00000F05EFB2046FFF73EFD00283FD1FFF7D3
:102FF00001FBA56B002DBBD1019B002BD6D0002E71
:10300000D8D0FFF719FB00F0B1FAFFF7F3FA94F804
:1030100044305BB2B3F1FF3FD1D094F845305BB29E
:10302000B3F1FF3FCFD0FFF707FB01A902A800F0E3
:10303000A9FC0028D1D12046FFF715FD0028C6D0F5
:10304000019904F1240000F017FC2046FFF765FD0C
:1030500000F026FB0028CAD14FF0E0234FF0805249
:10306000C3F8042DBFF34F8FBFF36F8FBFE700206E
:1030700089E700000023072B0CD8074A52F83320B9
:103080000AB10133F7E7044A42F8331002EBC303F5
:1030900058607047704700BFF41B002070B50446AD
:1030A0000D461646FFF7A6FA94F844305BB2B3F12A
:1030B000FF3F0DD094F845305BB2B3F1FF3F0BD02A
:1030C000FFF7BAFAA36B5BB12046FFF726FD70BD90
:1030D000002384F84430EDE7002384F84530EFE71F
:1030E0003246294604F1240000F0DEFBECE7000044
:1030F000084B1B681B6823B9074B4FF0FF321A605F
:103100007047044B1B68DB68DB685A68024B1A6027
:10311000704700BF381C0020E42000202DE9F04754
:1031200080460D4617469946089EDDF824A00A9C65
:103130009200A521206B00F027FF236B07F180424E
:10314000013A03EB820727F007074FF0000CBCF1B0
:103150000F0F0BD815F80C2004EB0C0383F8342068
:1031600015F80C3013B10CF1010CF0E7002384F8D2
:103170004330372E00D93726E662E6640025256500
:10318000201DFFF7A8F904F11800FFF7A4F9246146
:10319000C6F13806A6616462656584F858504A46EF
:1031A00041463846FFF702FA2060BAF1000F01D01D
:1031B000CAF80040BDE8F08738B5002407E004EB0A
:1031C000840293000E481844FFF77AF90134372C33
:1031D000F5D90C4D2846FFF773F90B4C2046FFF745
:1031E0006FF90A48FFF76CF90948FFF769F90948D0
:1031F000FFF766F9084B1D60084B1C6038BD00BF27
:10320000401C0020B8200020CC200020EC20002012
:103210001821002004210020381C00203C1C002024
:1032200010B50446FFF7E6F9224A1368013313602C
:10323000214B1B685BB1214B1B686BB91E4B1B6894
:10324000DA6AE36A9A4207D81B4B1C6004E01A4B07
:103250001C601368012B29D0194A136801331360CD
:103260006364E06A174B1B68984201D9154B1860DC
:1032700000EB8000211D144B03EB8000FFF72EF9BB
:10328000FFF7DAF90D4B1B687BB10B4B1B68DA6A51
:10329000E36A9A4209D24FF0E0234FF08052C3F81C
:1032A000042DBFF34F8FBFF36F8F10BDFFF784FF67
:1032B000D2E700BFA0200020341C00200021002005
:1032C000B0200020B4200020401C002010B504468F
:1032D00090F8593063B1012B11D0022B0ED04FF072
:1032E000500383F31188BFF36F8FBFF34F8FFEE757
:1032F000006BFFF771FB2046FFF76EFB10BDFFF779
:103300006BFBFBE70F4B1B68D3B110B5FFF772F9EE
:103310000D4BDB68DC68201DFFF704F90B4A1368CE
:10332000013B1360074A1368013B1360FFF784F900
:103330002046FFF7CBFF034B1B68002BE6D110BDE7
:10334000704700BFA420002018210020A0200020EA
:1033500008B5FFF7D7FF074B1B68012BF9D94FF0D2
:10336000E0234FF08052C3F8042DBFF34F8FBFF31B
:103370006F8FEEE7401C002070B504460D46174BDA
:103380001E68174B18680430FFF7CCF8B4F1FF3F04
:103390000DD03444124B1B685C60A64210D9114B0F
:1033A00018680F4B19680431FFF7A3F870BD002DA2
:1033B000EFD00B4B196804310B48FFF78FF8F5E796
:1033C0000A4B1868064B19680431FFF792F8084B4E
:1033D0001B68A342EAD9064B1C60E7E72C210020BA
:1033E000341C00203C1C002004210020381C00203C
:1033F000E420002030B587B00B9C7CB10C9DB5B1AA
:103400005C250495049D5C2D1AD04FF0500383F386
:103410001188BFF36F8FBFF34F8FFEE74FF050035C
:1034200083F31188BFF36F8FBFF34F8FFEE74FF029
:10343000500383F31188BFF36F8FBFF34F8FFEE705
:103440000C9D2C63022485F85940002403940295B6
:1034500005AC01940A9C0094FFF760FE0C98FFF7FE
:10346000DFFE059807B030BD2DE9F04385B0074673
:10347000884614461E469000FFF736FA00B3814690
:103480005C20FFF731FA0546B0B1C0F83090E5B1E5
:10349000002385F85930039302950D9B01930C9BF3
:1034A00000933346224641463846FFF737FE28460A
:1034B000FFF7B6FE012005E04846FFF78DFAE6E784
:1034C0004FF0FF3005B0BDE8F0834FF0FF30F9E773
:1034D00010B588B000240594069407AA06A905A88B
:1034E000FEF7D6FF059B0293069B019300942346AB
:1034F000079A18491848FFF77DFF184B186040B12C
:1035000000F04CFB012806D0B0F1FF3F18D008B006
:1035100010BD0020F6E74FF0500383F31188BFF38E
:103520006F8FBFF34F8F0E4B4FF0FF321A600D4B72
:1035300001221A600C4B00221A60FFF7E5F8E6E75B
:103540004FF0500383F31188BFF36F8FBFF34F8F9A
:10355000FEE700BF7841000851330008E02000205A
:10356000E4200020002100202C210020024A1368C2
:1035700001331360704700BFAC200020014B186876
:10358000704700BF2C210020F8B53A4B1B68002B78
:1035900064D1394B1D6801351D60C5B9374B1B68B7
:1035A0001B6843B14FF0500383F31188BFF36F8F53
:1035B000BFF34F8FFEE7314A1168314B1868106036
:1035C0001960304A136801331360FFF791FD2E4BE9
:1035D0001B68AB4238D900272C4B1B68DB6A03EB16
:1035E00083039A002A4B9B58012B3CD901273AE0D0
:1035F0000127224B1B681B6843B3204B1B68DB6809
:10360000DC6863689D4226D3261D3046FEF78AFF9C
:10361000A36A1BB104F11800FEF784FFE36A1D4A98
:103620001268934201D91B4A136003EB83039A008B
:10363000314617481044FEF751FFE26A134B1B68EE
:10364000DB6A9A42D4D2D4E70027D2E70E4B4FF080
:10365000FF321A60C0E70C4A1360BDE70E4A1368D8
:103660000133136000270D4B1B6803B10127384657
:10367000F8BD00BFAC2000202C210020381C002009
:103680003C1C0020E8200020E4200020341C002006
:10369000401C0020B4200020A82000203021002061
:1036A00038B5354B1B6843B94FF0500383F311888D
:1036B000BFF36F8FBFF34F8FFEE7FEF79BFF2E4BDD
:1036C0001A68013A1A601B68002B4FD12B4B1B68FC
:1036D0000BB900244BE00024294B1B681BB3284B7B
:1036E000DB68DC6804F11800FEF71CFF251D284686
:1036F000FEF718FFE06A234B1B68984201D9214B63
:10370000186000EB800029461F4B03EB8000FEF79A
:10371000E5FEE26A1D4B1B68DB6A9A42DCD31C4B58
:1037200001221A60D8E70CB1FFF7E2FC194B1C68C4
:1037300084B9174B1C68D4B14FF0E0234FF080528E
:10374000C3F8042DBFF34F8FBFF36F8F01240EE03A
:10375000013C07D0FFF718FF0028F9D00C4B0122DD
:103760001A60F5E70B4B00221A60E2E70024FEF72F
:1037700063FF204638BD00BFAC200020A020002001
:10378000EC200020B4200020401C0020341C00202D
:1037900030210020A820002010B5A8B10446104B0D
:1037A0001B6843B14FF0500383F31188BFF36F8F51
:1037B000BFF34F8FFEE7FFF7D9FE00212046FFF74A
:1037C000DBFDFFF76DFF48B94FF0E0234FF080526B
:1037D000C3F8042DBFF34F8FBFF36F8F10BD00BF31
:1037E000AC2000201F4B1B681BB11F4B01221A602D
:1037F00070471D4B00221A601C4B1B6803EB8301B2
:103800008A001B498A585AB90BB1013BF6E74FF0C1
:10381000500383F31188BFF36F8FBFF34F8FFEE721
:1038200003EB830082000A4450684068506003EB59
:10383000830C4FEA8C020832114488420BD003EB10
:10384000830291000A4A0A445268D168094A116009
:10385000064A13607047406862469100044A0A4471
:103860005060ECE7AC20002030210020B420002084
:10387000401C0020341C002058B110B50C46094AE9
:1038800011681831FEF735FE01212046FFF774FD5F
:1038900010BD4FF0500383F31188BFF36F8FBFF358
:1038A0004F8FFEE7341C002038B570B10D4614462A
:1038B0000A4A11681831FEF711FE0CB14FF0FF35BE
:1038C00021462846FFF758FD38BD4FF0500383F3DB
:1038D0001188BFF36F8FBFF34F8FFEE7341C0020BA
:1038E00038B5C368DC6824B304F118052846FEF730
:1038F00019FE184B1B682BBB251D2846FEF712FE30
:10390000E06A154B1B68984201D9134B186000EB15
:1039100080002946114B03EB8000FEF7DFFDE26AD1
:103920000F4B1B68DB6A9A4211D901200D4B1860BE
:1039300038BD4FF0500383F31188BFF36F8FBFF38F
:103940004F8FFEE729460848FEF7C8FDE7E700204D
:10395000EEE700BFAC200020B4200020401C002077
:10396000341C002030210020EC200020034B1B6879
:103970000360034B1B684360704700BFE8200020D2
:103980002C210020D8B170B50C46054601B3FEF7D6
:1039900031FE1B4B19686B68C81A2268B2F1FF3FF1
:1039A00027D0184E3668D5F800C0B44501D08B42F8
:1039B00024D9824215D80023236001241AE04FF055
:1039C000500383F31188BFF36F8FBFF34F8FFEE770
:1039D0004FF0500383F31188BFF36F8FBFF34F8F06
:1039E000FEE75B1A134423602846FFF7BFFF00245D
:1039F00000E00024FEF720FE204670BD0124F9E718
:103A00002C210020E8200020014B01221A60704781
:103A100030210020054B1B6833B1054B1B680BB1EF
:103A200000207047022070470120704700210020CD
:103A3000AC20002000283BD038B504461E4B1B6844
:103A4000834208D04FF0500383F31188BFF36F8F88
:103A5000BFF34F8FFEE7036D43B94FF0500383F37D
:103A60001188BFF36F8FBFF34F8FFEE7013B0365F4
:103A7000C16AC26C91421DD00BB1002038BD051D3A
:103A80002846FEF74FFDE06CE062C0F13803A36109
:103A90000A4B1B68984201D9084B186000EB800064
:103AA0002946074B03EB8000FEF718FD0120E5E7F0
:103AB000002070470020E1E7341C0020B4200020E3
:103AC000401C0020064B1A681368B3FA83F35B09A5
:103AD000036013B9D368186870470020704700BFAF
:103AE0003421002008B54160006191420CD8D21AFF
:103AF00083699A4201D3012008BD011D094B186852
:103B0000FEF7F7FC0020F7E79A4201D2994206D26D
:103B1000011D054B1868FEF7ECFC0020ECE70120C6
:103B2000EAE700BF382100203421002030B583B0FF
:103B3000FEF760FD114B1B681BB1FEF77DFD03B066
:103B400030BD0F4D2846FEF7BBFC0E4C2046FEF75D
:103B5000B7FC0D4B1D600D4B1C60002300930C4BFC
:103B60000C4A10210A20FFF762F8044B1860002865
:103B7000E3D00949FFF77EFADFE700BF58220020B3
:103B8000DC210020F02100203421002038210020F9
:103B9000082200203C2100208041000810B588B098
:103BA000FFF7C4FF124B1B68CBB1002405940694A9
:103BB00007AA06A905A8FEF777FC059B0293069BBA
:103BC0000193022300932346079A0A490A48FFF704
:103BD00011FC0A4B186010B1012008B010BD4FF065
:103BE000500383F31188BFF36F8FBFF34F8FFEE74E
:103BF0005822002088410008DD3E00085C22002099
:103C0000B8B19C4603461848006858B300B585B063
:103C100000910192029305291CDCFFF7FBFE0228AC
:103C200010D000231A4669460F480068FFF748F88D
:103C300015E04FF0500383F31188BFF36F8FBFF38C
:103C40004F8FFEE70023069A694607480068FFF792
:103C500037F804E0002362466946FFF7F5F805B03F
:103C60005DF804FB002070475822002070B582B038
:103C70001A4B1B681A6852B3DB681E68DC68251D86
:103C80002846FEF74FFC636A20469847E369012BFC
:103C9000EED1A36933449E4207D263602461294672
:103CA0000E4B1868FEF725FCE2E7002100910B4659
:103CB00032462046FFF7A4FF0028D9D14FF0500329
:103CC00083F31188BFF36F8FBFF34F8FFEE7044A72
:103CD000106802490860136002B070BD34210020F2
:103CE0003821002038B50546FFF748FC0446074B4D
:103CF0001B68834205D800232B60044B1C602046C0
:103D000038BDFFF7B3FF01232B60F6E70422002044
:103D100070B582B006460D4614490968C968CC687A
:103D2000201DFEF7FFFBE169012904D0636A2046EC
:103D3000984702B070BDA16933462A4631442046F7
:103D4000FFF7D0FE0028F1D0002100910B4632464B
:103D50002046FFF755FF0028E8D14FF0500383F3CA
:103D60001188BFF36F8FBFF34F8FFEE73421002020
:103D700070B582B006460C46FFF7F8FB01A8FFF7C6
:103D8000B1FF019B2BBB05460CB9B0421AD22CB136
:103D9000124B1B681C68B4FA84F464092246711B38
:103DA0000F4B1868FFF77AF9FFF77AFC98B94FF0D4
:103DB000E0234FF08052C3F8042DBFF34F8FBFF3C1
:103DC0006F8F08E0FFF76CFC29463046FFF7A0FF35
:103DD00001E0FFF765FC02B070BD00BF3821002094
:103DE0005822002010B588B002E0049B002B0FDAA7
:103DF000002204A9384B1868FFF78CF8002869D016
:103E0000049B002BF1DA07990698059B9847ECE78D
:103E1000069C636913B1201DFEF784FB03A8FFF71E
:103E200061FF049B092BE3D801A252F823F000BFE5
:103E3000593E0008593E0008593E0008F13D00086F
:103E40009F3E0008C53E0008593E0008593E000844
:103E5000F13D00089F3E0008059BA16902461944F8
:103E60002046FFF73FFE0028C2D0636A20469847ED
:103E7000E369012BBCD1A269002100910B46059892
:103E800002442046FFF7BCFE0028B1D14FF050039A
:103E900083F31188BFF36F8FBFF34F8FFEE7059950
:103EA000A16131B10346024601442046FFF71AFEE4
:103EB0009EE74FF0500383F31188BFF36F8FBFF37A
:103EC0004F8FFEE794F82C30002B91D12046FEF75F
:103ED00083FD8DE708B010BD5822002000B583B0E7
:103EE00001A8FFF7EFFD0199FFF742FFFFF77AFF07
:103EF000F6E700000C480D490D4A002302E0D458B3
:103F0000C4500433C4188C42F9D30A4A0A4C002323
:103F100001E013600432A242FBD3FCF7FBFD00F08A
:103F20000FF8FCF781FC7047000000203C040020E3
:103F3000A84100083C04002064220020FEE70000A5
:103F400070B50D4E0D4D761BB61006D0002455F8F9
:103F5000043B01349847A642F9D1094E094D00F0BF
:103F6000D5F8761BB61006D0002455F8043B013472
:103F70009847A642F9D170BD9C4100089C410008B9
:103F8000A44100089C410008830730B548D0541E66
:103F9000002A3FD00346CAB201E0013C3AD303F8FD
:103FA000012B9D07F9D1032C2DD9CDB245EA05256A
:103FB0000F2C45EA054536D9A4F1100222F00F0C6A
:103FC00003F1200EE6444FEA121C03F1100242E90D
:103FD000045542E9025510327245F8D10CF1010244
:103FE00014F00C0F03EB021204F00F0C13D0ACF121
:103FF000040323F003030433134442F8045B9342A5
:10400000FBD10CF003042CB1CAB21C4403F8012B01
:104010009C42FBD130BD64461346002CF4D1F9E735
:1040200003461446BFE71A46A446E0E7024B13B125
:10403000024800F005B87047000000004D4000083D
:10404000002301461A46184600F01AB838B5084B46
:10405000084D5B1B9C1007D0043B1D44013C55F8E8
:1040600004399847002CF9D1BDE8384000F054B825
:10407000A8410008A4410008704700BF704700BF76
:104080002DE9F047DFF87CA00646DAF800009846F4
:104090000F469146FFF7F0FF1B4B1B68D3F84841D2
:1040A00024B365681F2D26DC5EB96B1C0235DAF877
:1040B0000000636044F82570FFF7E0FF0020BDE8D2
:1040C000F087012304EB8501C1F88890D4F888219A
:1040D000AB401A43022EC4F88821C1F80881E4D10C
:1040E000D4F88C211343C4F88C31DEE703F5A674B1
:1040F000C3F84841D5E7DAF80000FFF7BFFF4FF0FB
:10410000FF30DCE73804002090410008F8B500BF1C
:10411000F8BC08BC9E467047F8B500BFF8BC08BCA8
:044120009E46704700
:1041240064656661756C745461736B0024410008A6
:10413400000000000000000000000000000000007B
:104144000002000018000000000000000000000051
:104154000000000000000000010203040607080933
:104164000000000001020304030406080C101820D8
:104174003000000049444C4500000000546D725169
:1041840000000000546D722053766300100000207C
:084194001CC0FF7F01000000C8
:08419C002D4000086501000838
:0441A40041010008CD
:1041A80068FF1F000100000010000000AAAAAAAAC8
:1041B80000000000FC02002064030020CC03002063
:1041C80000000000000000000000000000000000E7
:1041D80000000000000000000000000000000000D7
:1041E80000000000000000000000000000000000C7
:1041F80000000000000000000000000000000000B7
:1042080000000000000000000000000000000000A6
:104218000000000000000000000000000000000096
:104228000000000000000000000000000000000086
:104238000000000000000000000000000000000076
:104248000000000000000000000000000000000066
:104258000000000000000000010000000000000055
:104268000E33CDAB34126DE6ECDE05000B0000001A
:104278000000000000000000000000000000000036
:104288000000000000000000000000000000000026
:104298000000000000000000000000000000000016
:1042A8000000000000000000000000000000000006
:0C45D80000000000000000006022002035
:0400000508003EF5BC
:00000001FF
